{
  "transactions": [
    {
      "hash": "0x2eec33f8e467ac36f19fbe6010aa71fe339b0ac9cd2733c4e32bd37a5b14356a",
      "transactionType": "CREATE",
      "contractName": "Deployer",
      "contractAddress": "0x1c1f0657d9dc486997ceb7c5599ca0e2515ee81a",
      "function": null,
      "arguments": [
        "0x7b7C993c3c283aaca86913e1c27DB054Ce5fA143",
        "0x0000000000000000000000000000000000000000"
      ],
      "transaction": {
        "from": "0x7b7c993c3c283aaca86913e1c27db054ce5fa143",
        "gas": "0xd232f",
        "value": "0x0",
        "input": "0x608060405234801561001057600080fd5b50604051610b99380380610b9983398101604081905261002f916100e1565b600080546001600160a01b03199081166001600160a01b0385811691821784556001805490931690851617909155604051849284929133917f8be0079c531659141344cd1fd0a4f28419497f9722a3daafe3b4186f6b6457e091a36040516001600160a01b0382169033907fa3396fd7f6e0a21b50e5089d2da70d5ac0a3bbbd1f617a93f134b7638998019890600090a35050505061011b565b6001600160a01b03811681146100de57600080fd5b50565b600080604083850312156100f457600080fd5b82516100ff816100c9565b6020840151909250610110816100c9565b809150509250929050565b610a6f8061012a6000396000f3fe608060405234801561001057600080fd5b50600436106100885760003560e01c8063bf7e214f1161005b578063bf7e214f14610118578063ef5de7e31461012b578063f2fde38b1461013e578063f74907a21461015157600080fd5b806350c358a41461008d5780637a9e5e4b146100c55780638da5cb5b146100da578063bf40fac114610105575b600080fd5b6100b061009b36600461074d565b60026020526000908152604090205460ff1681565b60405190151581526020015b60405180910390f35b6100d86100d336600461074d565b610172565b005b6000546100ed906001600160a01b031681565b6040516001600160a01b0390911681526020016100bc565b6100ed6101133660046107ba565b61025c565b6001546100ed906001600160a01b031681565b6100ed610139366004610812565b61027c565b6100d861014c36600461074d565b61036f565b61016461015f3660046107ba565b61040b565b6040519081526020016100bc565b6000546001600160a01b0316331480610207575060015460405163b700961360e01b81526001600160a01b039091169063b7009613906101c690339030906001600160e01b03196000351690600401610921565b602060405180830381865afa1580156101e3573d6000803e3d6000fd5b505050506040513d601f19601f82011682018060405250810190610207919061094e565b61021057600080fd5b600180546001600160a01b0319166001600160a01b03831690811790915560405133907fa3396fd7f6e0a21b50e5089d2da70d5ac0a3bbbd1f617a93f134b7638998019890600090a350565b600080610269848461040b565b90506102748161043e565b949350505050565b6000610294336000356001600160e01b031916610450565b6102d45760405162461bcd60e51b815260206004820152600c60248201526b15539055551213d49256915160a21b60448201526064015b60405180910390fd5b845160208601208315610308578585856040516020016102f6939291906109a0565b60405160208183030381529060405295505b6000610314898961040b565b905060006103238289876104fa565b90507fd928a3951eedba2f72a5eb8c15b591ead63c282f21b2f5e93506fb88cae27fec8a8a838660405161035a94939291906109e9565b60405180910390a19998505050505050505050565b610385336000356001600160e01b031916610450565b6103c05760405162461bcd60e51b815260206004820152600c60248201526b15539055551213d49256915160a21b60448201526064016102cb565b600080546001600160a01b0319166001600160a01b0383169081178255604051909133917f8be0079c531659141344cd1fd0a4f28419497f9722a3daafe3b4186f6b6457e09190a350565b60008282604051602001610420929190610a19565b60405160208183030381529060405280519060200120905092915050565b600061044a8230610650565b92915050565b6001546000906001600160a01b031680158015906104da575060405163b700961360e01b81526001600160a01b0382169063b70096139061049990879030908890600401610921565b602060405180830381865afa1580156104b6573d6000803e3d6000fd5b505050506040513d601f19601f820116820180604052508101906104da919061094e565b8061027457506000546001600160a01b0385811691161491505092915050565b6000806040518060400160405280601081526020016f67363d3d37363d34f03d5260086018f360801b81525090506000858251602084016000f590506001600160a01b0381166105805760405162461bcd60e51b81526020600482015260116024820152701111541313d65351539517d19052531151607a1b60448201526064016102cb565b6105898661043e565b92506000816001600160a01b031685876040516105a69190610a2d565b60006040518083038185875af1925050503d80600081146105e3576040519150601f19603f3d011682016040523d82523d6000602084013e6105e8565b606091505b5050905080801561060257506001600160a01b0384163b15155b6106465760405162461bcd60e51b815260206004820152601560248201527412539255125053125690551253d397d19052531151605a1b60448201526064016102cb565b5050509392505050565b604080518082018252601081526f67363d3d37363d34f03d5260086018f360801b60209182015290516001600160f81b0319918101919091526bffffffffffffffffffffffff19606083901b166021820152603581018390527f21c35dbe1b344a2488cf3321d6ce542f8e9f305544ff09e4993a62319a497c1f605582015260009081906106f5906075015b6040516020818303038152906040528051906020012090565b6040516135a560f21b60208201526bffffffffffffffffffffffff19606083901b166022820152600160f81b6036820152909150610274906037016106dc565b6001600160a01b038116811461074a57600080fd5b50565b60006020828403121561075f57600080fd5b813561076a81610735565b9392505050565b60008083601f84011261078357600080fd5b50813567ffffffffffffffff81111561079b57600080fd5b6020830191508360208285010111156107b357600080fd5b9250929050565b600080602083850312156107cd57600080fd5b823567ffffffffffffffff8111156107e457600080fd5b6107f085828601610771565b90969095509350505050565b634e487b7160e01b600052604160045260246000fd5b6000806000806000806080878903121561082b57600080fd5b863567ffffffffffffffff8082111561084357600080fd5b61084f8a838b01610771565b9098509650602089013591508082111561086857600080fd5b818901915089601f83011261087c57600080fd5b81358181111561088e5761088e6107fc565b604051601f8201601f19908116603f011681019083821181831017156108b6576108b66107fc565b816040528281528c60208487010111156108cf57600080fd5b8260208601602083013760006020848301015280985050505060408901359150808211156108fc57600080fd5b5061090989828a01610771565b979a9699509497949695606090950135949350505050565b6001600160a01b0393841681529190921660208201526001600160e01b0319909116604082015260600190565b60006020828403121561096057600080fd5b8151801515811461076a57600080fd5b6000815160005b818110156109915760208185018101518683015201610977565b50600093019283525090919050565b60006109ac8286610970565b838582376000930192835250909392505050565b81835281816020850137506000828201602090810191909152601f909101601f19169091010190565b6060815260006109fd6060830186886109c0565b6001600160a01b03949094166020830152506040015292915050565b6020815260006102746020830184866109c0565b600061076a828461097056fea2646970667358221220e1c822d13bfeee5628a13152ad874dc3efae95b0da977ce2f950c5e336b7567864736f6c634300081500330000000000000000000000007b7c993c3c283aaca86913e1c27db054ce5fa1430000000000000000000000000000000000000000000000000000000000000000",
        "nonce": "0x86",
        "chainId": "0xaa36a7"
      },
      "additionalContracts": [],
      "isFixedGasLimit": false
    },
    {
      "hash": "0x8708122d98a9d34234ea5ae85b9f7e6feb3b43ba65e0fc3cc5be3db88238aa18",
      "transactionType": "CALL",
      "contractName": "Deployer",
      "contractAddress": "0x1c1f0657d9dc486997ceb7c5599ca0e2515ee81a",
      "function": "deployContract(string,bytes,bytes,uint256)",
      "arguments": [
        "\"Seven Seas RolesAuthority Version 0.0\"",
        "0x608060405234801561001057600080fd5b50604051610b9c380380610b9c83398101604081905261002f916100e1565b600080546001600160a01b03199081166001600160a01b0385811691821784556001805490931690851617909155604051849284929133917f8be0079c531659141344cd1fd0a4f28419497f9722a3daafe3b4186f6b6457e091a36040516001600160a01b0382169033907fa3396fd7f6e0a21b50e5089d2da70d5ac0a3bbbd1f617a93f134b7638998019890600090a35050505061011b565b6001600160a01b03811681146100de57600080fd5b50565b600080604083850312156100f457600080fd5b82516100ff816100c9565b6020840151909250610110816100c9565b809150509250929050565b610a728061012a6000396000f3fe608060405234801561001057600080fd5b50600436106100cf5760003560e01c80638da5cb5b1161008c578063bf7e214f11610066578063bf7e214f14610236578063c6b0263e14610249578063ea7ca2761461025c578063f2fde38b1461029357600080fd5b80638da5cb5b146101ab578063b4bad06a146101d6578063b70096131461022357600080fd5b806306a36aee146100d45780632f47571f1461010757806367aff484146101455780637917b7941461015a5780637a9e5e4b146101855780637d40583d14610198575b600080fd5b6100f46100e23660046107d7565b60026020526000908152604090205481565b6040519081526020015b60405180910390f35b610135610115366004610818565b600360209081526000928352604080842090915290825290205460ff1681565b60405190151581526020016100fe565b61015861015336600461086c565b6102a6565b005b6100f4610168366004610818565b600460209081526000928352604080842090915290825290205481565b6101586101933660046107d7565b610384565b6101586101a63660046108b5565b61046e565b6000546101be906001600160a01b031681565b6040516001600160a01b0390911681526020016100fe565b6101356101e436600461090d565b6001600160a01b039190911660009081526004602090815260408083206001600160e01b031990941683529290522054600160ff929092161c16151590565b610135610231366004610952565b610579565b6001546101be906001600160a01b031681565b610158610257366004610972565b6105f8565b61013561026a3660046109a0565b6001600160a01b0391909116600090815260026020526040902054600160ff9092161c16151590565b6101586102a13660046107d7565b610699565b6102bc336000356001600160e01b031916610716565b6102e15760405162461bcd60e51b81526004016102d8906109cc565b60405180910390fd5b8015610310576001600160a01b03831660009081526002602052604090208054600160ff85161b179055610336565b6001600160a01b03831660009081526002602052604090208054600160ff85161b191690555b8160ff16836001600160a01b03167f4c9bdd0c8e073eb5eda2250b18d8e5121ff27b62064fbeeeed4869bb99bc5bf283604051610377911515815260200190565b60405180910390a3505050565b6000546001600160a01b0316331480610419575060015460405163b700961360e01b81526001600160a01b039091169063b7009613906103d890339030906001600160e01b031960003516906004016109f2565b602060405180830381865afa1580156103f5573d6000803e3d6000fd5b505050506040513d601f19601f820116820180604052508101906104199190610a1f565b61042257600080fd5b600180546001600160a01b0319166001600160a01b03831690811790915560405133907fa3396fd7f6e0a21b50e5089d2da70d5ac0a3bbbd1f617a93f134b7638998019890600090a350565b610484336000356001600160e01b031916610716565b6104a05760405162461bcd60e51b81526004016102d8906109cc565b80156104e4576001600160a01b03831660009081526004602090815260408083206001600160e01b03198616845290915290208054600160ff87161b17905561051f565b6001600160a01b03831660009081526004602090815260408083206001600160e01b03198616845290915290208054600160ff87161b191690555b816001600160e01b031916836001600160a01b03168560ff167fa52ea92e6e955aa8ac66420b86350f7139959adfcc7e6a14eee1bd116d09860e8460405161056b911515815260200190565b60405180910390a450505050565b6001600160a01b03821660009081526003602090815260408083206001600160e01b03198516845290915281205460ff16806105f057506001600160a01b0380841660009081526004602090815260408083206001600160e01b031987168452825280832054938816835260029091529020541615155b949350505050565b61060e336000356001600160e01b031916610716565b61062a5760405162461bcd60e51b81526004016102d8906109cc565b6001600160a01b03831660008181526003602090815260408083206001600160e01b0319871680855290835292819020805460ff191686151590811790915590519081529192917f950a343f5d10445e82a71036d3f4fb3016180a25805141932543b83e2078a93e9101610377565b6106af336000356001600160e01b031916610716565b6106cb5760405162461bcd60e51b81526004016102d8906109cc565b600080546001600160a01b0319166001600160a01b0383169081178255604051909133917f8be0079c531659141344cd1fd0a4f28419497f9722a3daafe3b4186f6b6457e09190a350565b6001546000906001600160a01b031680158015906107a0575060405163b700961360e01b81526001600160a01b0382169063b70096139061075f908790309088906004016109f2565b602060405180830381865afa15801561077c573d6000803e3d6000fd5b505050506040513d601f19601f820116820180604052508101906107a09190610a1f565b806105f057506000546001600160a01b03858116911614949350505050565b6001600160a01b03811681146107d457600080fd5b50565b6000602082840312156107e957600080fd5b81356107f4816107bf565b9392505050565b80356001600160e01b03198116811461081357600080fd5b919050565b6000806040838503121561082b57600080fd5b8235610836816107bf565b9150610844602084016107fb565b90509250929050565b803560ff8116811461081357600080fd5b80151581146107d457600080fd5b60008060006060848603121561088157600080fd5b833561088c816107bf565b925061089a6020850161084d565b915060408401356108aa8161085e565b809150509250925092565b600080600080608085870312156108cb57600080fd5b6108d48561084d565b935060208501356108e4816107bf565b92506108f2604086016107fb565b915060608501356109028161085e565b939692955090935050565b60008060006060848603121561092257600080fd5b61092b8461084d565b9250602084013561093b816107bf565b9150610949604085016107fb565b90509250925092565b60008060006060848603121561096757600080fd5b833561092b816107bf565b60008060006060848603121561098757600080fd5b8335610992816107bf565b925061089a602085016107fb565b600080604083850312156109b357600080fd5b82356109be816107bf565b91506108446020840161084d565b6020808252600c908201526b15539055551213d49256915160a21b604082015260600190565b6001600160a01b0393841681529190921660208201526001600160e01b0319909116604082015260600190565b600060208284031215610a3157600080fd5b81516107f48161085e56fea264697066735822122090501c2f118508ba1e81196275ec48bca3d73a1049703244fd93f267468c4ab764736f6c63430008150033",
        "0x0000000000000000000000007b7c993c3c283aaca86913e1c27db054ce5fa1430000000000000000000000000000000000000000000000000000000000000000",
        "0"
      ],
      "transaction": {
        "from": "0x7b7c993c3c283aaca86913e1c27db054ce5fa143",
        "to": "0x1c1f0657d9dc486997ceb7c5599ca0e2515ee81a",
        "gas": "0xf4733",
        "value": "0x0",
        "input": "0xef5de7e3000000000000000000000000000000000000000000000000000000000000008000000000000000000000000000000000000000000000000000000000000000e00000000000000000000000000000000000000000000000000000000000000ca000000000000000000000000000000000000000000000000000000000000000000000000000000000000000000000000000000000000000000000000000000025536576656e205365617320526f6c6573417574686f726974792056657273696f6e20302e300000000000000000000000000000000000000000000000000000000000000000000000000000000000000000000000000000000000000000000b9c608060405234801561001057600080fd5b50604051610b9c380380610b9c83398101604081905261002f916100e1565b600080546001600160a01b03199081166001600160a01b0385811691821784556001805490931690851617909155604051849284929133917f8be0079c531659141344cd1fd0a4f28419497f9722a3daafe3b4186f6b6457e091a36040516001600160a01b0382169033907fa3396fd7f6e0a21b50e5089d2da70d5ac0a3bbbd1f617a93f134b7638998019890600090a35050505061011b565b6001600160a01b03811681146100de57600080fd5b50565b600080604083850312156100f457600080fd5b82516100ff816100c9565b6020840151909250610110816100c9565b809150509250929050565b610a728061012a6000396000f3fe608060405234801561001057600080fd5b50600436106100cf5760003560e01c80638da5cb5b1161008c578063bf7e214f11610066578063bf7e214f14610236578063c6b0263e14610249578063ea7ca2761461025c578063f2fde38b1461029357600080fd5b80638da5cb5b146101ab578063b4bad06a146101d6578063b70096131461022357600080fd5b806306a36aee146100d45780632f47571f1461010757806367aff484146101455780637917b7941461015a5780637a9e5e4b146101855780637d40583d14610198575b600080fd5b6100f46100e23660046107d7565b60026020526000908152604090205481565b6040519081526020015b60405180910390f35b610135610115366004610818565b600360209081526000928352604080842090915290825290205460ff1681565b60405190151581526020016100fe565b61015861015336600461086c565b6102a6565b005b6100f4610168366004610818565b600460209081526000928352604080842090915290825290205481565b6101586101933660046107d7565b610384565b6101586101a63660046108b5565b61046e565b6000546101be906001600160a01b031681565b6040516001600160a01b0390911681526020016100fe565b6101356101e436600461090d565b6001600160a01b039190911660009081526004602090815260408083206001600160e01b031990941683529290522054600160ff929092161c16151590565b610135610231366004610952565b610579565b6001546101be906001600160a01b031681565b610158610257366004610972565b6105f8565b61013561026a3660046109a0565b6001600160a01b0391909116600090815260026020526040902054600160ff9092161c16151590565b6101586102a13660046107d7565b610699565b6102bc336000356001600160e01b031916610716565b6102e15760405162461bcd60e51b81526004016102d8906109cc565b60405180910390fd5b8015610310576001600160a01b03831660009081526002602052604090208054600160ff85161b179055610336565b6001600160a01b03831660009081526002602052604090208054600160ff85161b191690555b8160ff16836001600160a01b03167f4c9bdd0c8e073eb5eda2250b18d8e5121ff27b62064fbeeeed4869bb99bc5bf283604051610377911515815260200190565b60405180910390a3505050565b6000546001600160a01b0316331480610419575060015460405163b700961360e01b81526001600160a01b039091169063b7009613906103d890339030906001600160e01b031960003516906004016109f2565b602060405180830381865afa1580156103f5573d6000803e3d6000fd5b505050506040513d601f19601f820116820180604052508101906104199190610a1f565b61042257600080fd5b600180546001600160a01b0319166001600160a01b03831690811790915560405133907fa3396fd7f6e0a21b50e5089d2da70d5ac0a3bbbd1f617a93f134b7638998019890600090a350565b610484336000356001600160e01b031916610716565b6104a05760405162461bcd60e51b81526004016102d8906109cc565b80156104e4576001600160a01b03831660009081526004602090815260408083206001600160e01b03198616845290915290208054600160ff87161b17905561051f565b6001600160a01b03831660009081526004602090815260408083206001600160e01b03198616845290915290208054600160ff87161b191690555b816001600160e01b031916836001600160a01b03168560ff167fa52ea92e6e955aa8ac66420b86350f7139959adfcc7e6a14eee1bd116d09860e8460405161056b911515815260200190565b60405180910390a450505050565b6001600160a01b03821660009081526003602090815260408083206001600160e01b03198516845290915281205460ff16806105f057506001600160a01b0380841660009081526004602090815260408083206001600160e01b031987168452825280832054938816835260029091529020541615155b949350505050565b61060e336000356001600160e01b031916610716565b61062a5760405162461bcd60e51b81526004016102d8906109cc565b6001600160a01b03831660008181526003602090815260408083206001600160e01b0319871680855290835292819020805460ff191686151590811790915590519081529192917f950a343f5d10445e82a71036d3f4fb3016180a25805141932543b83e2078a93e9101610377565b6106af336000356001600160e01b031916610716565b6106cb5760405162461bcd60e51b81526004016102d8906109cc565b600080546001600160a01b0319166001600160a01b0383169081178255604051909133917f8be0079c531659141344cd1fd0a4f28419497f9722a3daafe3b4186f6b6457e09190a350565b6001546000906001600160a01b031680158015906107a0575060405163b700961360e01b81526001600160a01b0382169063b70096139061075f908790309088906004016109f2565b602060405180830381865afa15801561077c573d6000803e3d6000fd5b505050506040513d601f19601f820116820180604052508101906107a09190610a1f565b806105f057506000546001600160a01b03858116911614949350505050565b6001600160a01b03811681146107d457600080fd5b50565b6000602082840312156107e957600080fd5b81356107f4816107bf565b9392505050565b80356001600160e01b03198116811461081357600080fd5b919050565b6000806040838503121561082b57600080fd5b8235610836816107bf565b9150610844602084016107fb565b90509250929050565b803560ff8116811461081357600080fd5b80151581146107d457600080fd5b60008060006060848603121561088157600080fd5b833561088c816107bf565b925061089a6020850161084d565b915060408401356108aa8161085e565b809150509250925092565b600080600080608085870312156108cb57600080fd5b6108d48561084d565b935060208501356108e4816107bf565b92506108f2604086016107fb565b915060608501356109028161085e565b939692955090935050565b60008060006060848603121561092257600080fd5b61092b8461084d565b9250602084013561093b816107bf565b9150610949604085016107fb565b90509250925092565b60008060006060848603121561096757600080fd5b833561092b816107bf565b60008060006060848603121561098757600080fd5b8335610992816107bf565b925061089a602085016107fb565b600080604083850312156109b357600080fd5b82356109be816107bf565b91506108446020840161084d565b6020808252600c908201526b15539055551213d49256915160a21b604082015260600190565b6001600160a01b0393841681529190921660208201526001600160e01b0319909116604082015260600190565b600060208284031215610a3157600080fd5b81516107f48161085e56fea264697066735822122090501c2f118508ba1e81196275ec48bca3d73a1049703244fd93f267468c4ab764736f6c634300081500330000000000000000000000000000000000000000000000000000000000000000000000400000000000000000000000007b7c993c3c283aaca86913e1c27db054ce5fa1430000000000000000000000000000000000000000000000000000000000000000",
        "nonce": "0x87",
        "chainId": "0xaa36a7"
      },
      "additionalContracts": [
        {
          "transactionType": "CREATE2",
          "address": "0xe15687a5c1da285ea01c7abe1b2c1a881c6d188d",
          "initCode": "0x67363d3d37363d34f03d5260086018f3"
        },
        {
          "transactionType": "CREATE",
          "address": "0xc5db00b3e2371ca308963b5d696b8ae4c29f8386",
          "initCode": "0x608060405234801561001057600080fd5b50604051610b9c380380610b9c83398101604081905261002f916100e1565b600080546001600160a01b03199081166001600160a01b0385811691821784556001805490931690851617909155604051849284929133917f8be0079c531659141344cd1fd0a4f28419497f9722a3daafe3b4186f6b6457e091a36040516001600160a01b0382169033907fa3396fd7f6e0a21b50e5089d2da70d5ac0a3bbbd1f617a93f134b7638998019890600090a35050505061011b565b6001600160a01b03811681146100de57600080fd5b50565b600080604083850312156100f457600080fd5b82516100ff816100c9565b6020840151909250610110816100c9565b809150509250929050565b610a728061012a6000396000f3fe608060405234801561001057600080fd5b50600436106100cf5760003560e01c80638da5cb5b1161008c578063bf7e214f11610066578063bf7e214f14610236578063c6b0263e14610249578063ea7ca2761461025c578063f2fde38b1461029357600080fd5b80638da5cb5b146101ab578063b4bad06a146101d6578063b70096131461022357600080fd5b806306a36aee146100d45780632f47571f1461010757806367aff484146101455780637917b7941461015a5780637a9e5e4b146101855780637d40583d14610198575b600080fd5b6100f46100e23660046107d7565b60026020526000908152604090205481565b6040519081526020015b60405180910390f35b610135610115366004610818565b600360209081526000928352604080842090915290825290205460ff1681565b60405190151581526020016100fe565b61015861015336600461086c565b6102a6565b005b6100f4610168366004610818565b600460209081526000928352604080842090915290825290205481565b6101586101933660046107d7565b610384565b6101586101a63660046108b5565b61046e565b6000546101be906001600160a01b031681565b6040516001600160a01b0390911681526020016100fe565b6101356101e436600461090d565b6001600160a01b039190911660009081526004602090815260408083206001600160e01b031990941683529290522054600160ff929092161c16151590565b610135610231366004610952565b610579565b6001546101be906001600160a01b031681565b610158610257366004610972565b6105f8565b61013561026a3660046109a0565b6001600160a01b0391909116600090815260026020526040902054600160ff9092161c16151590565b6101586102a13660046107d7565b610699565b6102bc336000356001600160e01b031916610716565b6102e15760405162461bcd60e51b81526004016102d8906109cc565b60405180910390fd5b8015610310576001600160a01b03831660009081526002602052604090208054600160ff85161b179055610336565b6001600160a01b03831660009081526002602052604090208054600160ff85161b191690555b8160ff16836001600160a01b03167f4c9bdd0c8e073eb5eda2250b18d8e5121ff27b62064fbeeeed4869bb99bc5bf283604051610377911515815260200190565b60405180910390a3505050565b6000546001600160a01b0316331480610419575060015460405163b700961360e01b81526001600160a01b039091169063b7009613906103d890339030906001600160e01b031960003516906004016109f2565b602060405180830381865afa1580156103f5573d6000803e3d6000fd5b505050506040513d601f19601f820116820180604052508101906104199190610a1f565b61042257600080fd5b600180546001600160a01b0319166001600160a01b03831690811790915560405133907fa3396fd7f6e0a21b50e5089d2da70d5ac0a3bbbd1f617a93f134b7638998019890600090a350565b610484336000356001600160e01b031916610716565b6104a05760405162461bcd60e51b81526004016102d8906109cc565b80156104e4576001600160a01b03831660009081526004602090815260408083206001600160e01b03198616845290915290208054600160ff87161b17905561051f565b6001600160a01b03831660009081526004602090815260408083206001600160e01b03198616845290915290208054600160ff87161b191690555b816001600160e01b031916836001600160a01b03168560ff167fa52ea92e6e955aa8ac66420b86350f7139959adfcc7e6a14eee1bd116d09860e8460405161056b911515815260200190565b60405180910390a450505050565b6001600160a01b03821660009081526003602090815260408083206001600160e01b03198516845290915281205460ff16806105f057506001600160a01b0380841660009081526004602090815260408083206001600160e01b031987168452825280832054938816835260029091529020541615155b949350505050565b61060e336000356001600160e01b031916610716565b61062a5760405162461bcd60e51b81526004016102d8906109cc565b6001600160a01b03831660008181526003602090815260408083206001600160e01b0319871680855290835292819020805460ff191686151590811790915590519081529192917f950a343f5d10445e82a71036d3f4fb3016180a25805141932543b83e2078a93e9101610377565b6106af336000356001600160e01b031916610716565b6106cb5760405162461bcd60e51b81526004016102d8906109cc565b600080546001600160a01b0319166001600160a01b0383169081178255604051909133917f8be0079c531659141344cd1fd0a4f28419497f9722a3daafe3b4186f6b6457e09190a350565b6001546000906001600160a01b031680158015906107a0575060405163b700961360e01b81526001600160a01b0382169063b70096139061075f908790309088906004016109f2565b602060405180830381865afa15801561077c573d6000803e3d6000fd5b505050506040513d601f19601f820116820180604052508101906107a09190610a1f565b806105f057506000546001600160a01b03858116911614949350505050565b6001600160a01b03811681146107d457600080fd5b50565b6000602082840312156107e957600080fd5b81356107f4816107bf565b9392505050565b80356001600160e01b03198116811461081357600080fd5b919050565b6000806040838503121561082b57600080fd5b8235610836816107bf565b9150610844602084016107fb565b90509250929050565b803560ff8116811461081357600080fd5b80151581146107d457600080fd5b60008060006060848603121561088157600080fd5b833561088c816107bf565b925061089a6020850161084d565b915060408401356108aa8161085e565b809150509250925092565b600080600080608085870312156108cb57600080fd5b6108d48561084d565b935060208501356108e4816107bf565b92506108f2604086016107fb565b915060608501356109028161085e565b939692955090935050565b60008060006060848603121561092257600080fd5b61092b8461084d565b9250602084013561093b816107bf565b9150610949604085016107fb565b90509250925092565b60008060006060848603121561096757600080fd5b833561092b816107bf565b60008060006060848603121561098757600080fd5b8335610992816107bf565b925061089a602085016107fb565b600080604083850312156109b357600080fd5b82356109be816107bf565b91506108446020840161084d565b6020808252600c908201526b15539055551213d49256915160a21b604082015260600190565b6001600160a01b0393841681529190921660208201526001600160e01b0319909116604082015260600190565b600060208284031215610a3157600080fd5b81516107f48161085e56fea264697066735822122090501c2f118508ba1e81196275ec48bca3d73a1049703244fd93f267468c4ab764736f6c634300081500330000000000000000000000007b7c993c3c283aaca86913e1c27db054ce5fa1430000000000000000000000000000000000000000000000000000000000000000"
        }
      ],
      "isFixedGasLimit": false
    },
    {
      "hash": "0x37aa6d865e58227a82a1927eda9061e6e83f6756214d69367d40badcd0923aab",
      "transactionType": "CALL",
      "contractName": "Deployer",
      "contractAddress": "0x1c1f0657d9dc486997ceb7c5599ca0e2515ee81a",
      "function": "setAuthority(address)",
      "arguments": [
        "0xC5Db00B3e2371ca308963b5D696b8ae4c29F8386"
      ],
      "transaction": {
        "from": "0x7b7c993c3c283aaca86913e1c27db054ce5fa143",
        "to": "0x1c1f0657d9dc486997ceb7c5599ca0e2515ee81a",
        "gas": "0x100bd",
        "value": "0x0",
        "input": "0x7a9e5e4b000000000000000000000000c5db00b3e2371ca308963b5d696b8ae4c29f8386",
        "nonce": "0x88",
        "chainId": "0xaa36a7"
      },
      "additionalContracts": [],
      "isFixedGasLimit": false
    },
    {
      "hash": "0xad5aac92358d65bbe7b57008696fa18bd5f58ac853f1dc2b2180dc32f9451a3c",
      "transactionType": "CALL",
      "contractName": "RolesAuthority",
      "contractAddress": "0xc5db00b3e2371ca308963b5d696b8ae4c29f8386",
      "function": "setRoleCapability(uint8,address,bytes4,bool)",
      "arguments": [
        "1",
        "0x1C1F0657D9Dc486997ceB7c5599CA0e2515Ee81a",
        "0xef5de7e300000000000000000000000000000000000000000000000000000000",
        "true"
      ],
      "transaction": {
        "from": "0x7b7c993c3c283aaca86913e1c27db054ce5fa143",
        "to": "0xc5db00b3e2371ca308963b5d696b8ae4c29f8386",
        "gas": "0x12691",
        "value": "0x0",
        "input": "0x7d40583d00000000000000000000000000000000000000000000000000000000000000010000000000000000000000001c1f0657d9dc486997ceb7c5599ca0e2515ee81aef5de7e3000000000000000000000000000000000000000000000000000000000000000000000000000000000000000000000000000000000000000000000001",
        "nonce": "0x89",
        "chainId": "0xaa36a7"
      },
      "additionalContracts": [],
      "isFixedGasLimit": false
    },
    {
      "hash": "0x943deff684a1ac8bbb15aff4273834700bfd1ca9f9fefc2db48de3887ceb9f67",
      "transactionType": "CALL",
      "contractName": "RolesAuthority",
      "contractAddress": "0xc5db00b3e2371ca308963b5d696b8ae4c29f8386",
      "function": "setUserRole(address,uint8,bool)",
      "arguments": [
        "0x7b7C993c3c283aaca86913e1c27DB054Ce5fA143",
        "1",
        "true"
      ],
      "transaction": {
        "from": "0x7b7c993c3c283aaca86913e1c27db054ce5fa143",
        "to": "0xc5db00b3e2371ca308963b5d696b8ae4c29f8386",
        "gas": "0x111b0",
        "value": "0x0",
        "input": "0x67aff4840000000000000000000000007b7c993c3c283aaca86913e1c27db054ce5fa14300000000000000000000000000000000000000000000000000000000000000010000000000000000000000000000000000000000000000000000000000000001",
        "nonce": "0x8a",
        "chainId": "0xaa36a7"
      },
      "additionalContracts": [],
      "isFixedGasLimit": false
    },
    {
      "hash": "0xfc74f08b13f6fdab131c8f586828ebf6747e03bc916d588c25a3180d3c8c5365",
      "transactionType": "CALL",
      "contractName": "RolesAuthority",
      "contractAddress": "0xc5db00b3e2371ca308963b5d696b8ae4c29f8386",
      "function": "setUserRole(address,uint8,bool)",
      "arguments": [
        "0x7b7C993c3c283aaca86913e1c27DB054Ce5fA143",
        "1",
        "true"
      ],
      "transaction": {
        "from": "0x7b7c993c3c283aaca86913e1c27db054ce5fa143",
        "to": "0xc5db00b3e2371ca308963b5d696b8ae4c29f8386",
        "gas": "0xb01a",
        "value": "0x0",
        "input": "0x67aff4840000000000000000000000007b7c993c3c283aaca86913e1c27db054ce5fa14300000000000000000000000000000000000000000000000000000000000000010000000000000000000000000000000000000000000000000000000000000001",
        "nonce": "0x8b",
        "chainId": "0xaa36a7"
      },
      "additionalContracts": [],
      "isFixedGasLimit": false
    }
  ],
  "receipts": [
    {
      "status": "0x1",
      "cumulativeGasUsed": "0x9a20b9",
      "logs": [
        {
          "address": "0x1c1f0657d9dc486997ceb7c5599ca0e2515ee81a",
          "topics": [
            "0x8be0079c531659141344cd1fd0a4f28419497f9722a3daafe3b4186f6b6457e0",
            "0x0000000000000000000000007b7c993c3c283aaca86913e1c27db054ce5fa143",
            "0x0000000000000000000000007b7c993c3c283aaca86913e1c27db054ce5fa143"
          ],
          "data": "0x",
          "blockHash": "0xf5bd4b23321fbc0dd2f361f1bf5b01df5eacd4bea15a2567bdff054e6072c51f",
          "blockNumber": "0x6a9ff6",
          "transactionHash": "0x2eec33f8e467ac36f19fbe6010aa71fe339b0ac9cd2733c4e32bd37a5b14356a",
          "transactionIndex": "0x30",
          "logIndex": "0x43",
          "removed": false
        },
        {
          "address": "0x1c1f0657d9dc486997ceb7c5599ca0e2515ee81a",
          "topics": [
            "0xa3396fd7f6e0a21b50e5089d2da70d5ac0a3bbbd1f617a93f134b76389980198",
            "0x0000000000000000000000007b7c993c3c283aaca86913e1c27db054ce5fa143",
            "0x0000000000000000000000000000000000000000000000000000000000000000"
          ],
          "data": "0x",
          "blockHash": "0xf5bd4b23321fbc0dd2f361f1bf5b01df5eacd4bea15a2567bdff054e6072c51f",
          "blockNumber": "0x6a9ff6",
          "transactionHash": "0x2eec33f8e467ac36f19fbe6010aa71fe339b0ac9cd2733c4e32bd37a5b14356a",
          "transactionIndex": "0x30",
          "logIndex": "0x44",
          "removed": false
        }
      ],
      "logsBloom": "0x00000000000000000000000000000000000000000000000000800000000000000000080000000000000010000000000000100000000000000000000000000000000000000000000000000000000000000001000100000000000000000000000000000000020000000000000000000800000000000000000000000000000000400000000000000000000000000000000000000000000000000000000000100001000000000000000040000000000000000000001000000000000000020000000000000000000000000000000000000000000000000000000000000000000020000000000000000000000000000000000000000000000000000000000000000000",
      "type": "0x2",
      "transactionHash": "0x2eec33f8e467ac36f19fbe6010aa71fe339b0ac9cd2733c4e32bd37a5b14356a",
      "transactionIndex": "0x30",
      "blockHash": "0xf5bd4b23321fbc0dd2f361f1bf5b01df5eacd4bea15a2567bdff054e6072c51f",
      "blockNumber": "0x6a9ff6",
      "gasUsed": "0xa1bcf",
      "effectiveGasPrice": "0xaa3a1a51",
      "from": "0x7b7c993c3c283aaca86913e1c27db054ce5fa143",
      "to": null,
      "contractAddress": "0x1c1f0657d9dc486997ceb7c5599ca0e2515ee81a"
    },
    {
      "status": "0x1",
      "cumulativeGasUsed": "0x15127b1",
      "logs": [
        {
          "address": "0xc5db00b3e2371ca308963b5d696b8ae4c29f8386",
          "topics": [
            "0x8be0079c531659141344cd1fd0a4f28419497f9722a3daafe3b4186f6b6457e0",
            "0x000000000000000000000000e15687a5c1da285ea01c7abe1b2c1a881c6d188d",
            "0x0000000000000000000000007b7c993c3c283aaca86913e1c27db054ce5fa143"
          ],
          "data": "0x",
          "blockHash": "0xe69af7887d481e178eb5ce430647df9d9a41ae32da1336c682b54707de576c9e",
          "blockNumber": "0x6a9ff7",
          "transactionHash": "0x8708122d98a9d34234ea5ae85b9f7e6feb3b43ba65e0fc3cc5be3db88238aa18",
          "transactionIndex": "0x48",
          "logIndex": "0x80",
          "removed": false
        },
        {
          "address": "0xc5db00b3e2371ca308963b5d696b8ae4c29f8386",
          "topics": [
            "0xa3396fd7f6e0a21b50e5089d2da70d5ac0a3bbbd1f617a93f134b76389980198",
            "0x000000000000000000000000e15687a5c1da285ea01c7abe1b2c1a881c6d188d",
            "0x0000000000000000000000000000000000000000000000000000000000000000"
          ],
          "data": "0x",
          "blockHash": "0xe69af7887d481e178eb5ce430647df9d9a41ae32da1336c682b54707de576c9e",
          "blockNumber": "0x6a9ff7",
          "transactionHash": "0x8708122d98a9d34234ea5ae85b9f7e6feb3b43ba65e0fc3cc5be3db88238aa18",
          "transactionIndex": "0x48",
          "logIndex": "0x81",
          "removed": false
        },
        {
          "address": "0x1c1f0657d9dc486997ceb7c5599ca0e2515ee81a",
          "topics": [
            "0xd928a3951eedba2f72a5eb8c15b591ead63c282f21b2f5e93506fb88cae27fec"
          ],
          "data": "0x0000000000000000000000000000000000000000000000000000000000000060000000000000000000000000c5db00b3e2371ca308963b5d696b8ae4c29f83864f637aa2e85a3b586bbe66f081df9acb54b678d226c11ec657f61bf1ac16fdab0000000000000000000000000000000000000000000000000000000000000025536576656e205365617320526f6c6573417574686f726974792056657273696f6e20302e30000000000000000000000000000000000000000000000000000000",
          "blockHash": "0xe69af7887d481e178eb5ce430647df9d9a41ae32da1336c682b54707de576c9e",
          "blockNumber": "0x6a9ff7",
          "transactionHash": "0x8708122d98a9d34234ea5ae85b9f7e6feb3b43ba65e0fc3cc5be3db88238aa18",
          "transactionIndex": "0x48",
          "logIndex": "0x82",
          "removed": false
        }
      ],
      "logsBloom": "0x00000000000000000000000000000000000000000000000000800000000000000000080200000000000010000000000000100000000000010000000000000000000000000000000000000000000000000001000100000000000000000000000000000000020000000000000000000800000000000000000000000000000000400000000000000000000000000000000000000000000000080000000000100001000000000000000040000000100000000000001000000000000000020000000004200000000000000000000000000000000000000020000000000000004020000000000000000000000000000000000000000000000000000000004000000000",
      "type": "0x2",
      "transactionHash": "0x8708122d98a9d34234ea5ae85b9f7e6feb3b43ba65e0fc3cc5be3db88238aa18",
      "transactionIndex": "0x48",
      "blockHash": "0xe69af7887d481e178eb5ce430647df9d9a41ae32da1336c682b54707de576c9e",
      "blockNumber": "0x6a9ff7",
      "gasUsed": "0xb1064",
      "effectiveGasPrice": "0xad62a099",
      "from": "0x7b7c993c3c283aaca86913e1c27db054ce5fa143",
      "to": "0x1c1f0657d9dc486997ceb7c5599ca0e2515ee81a",
      "contractAddress": null
    },
    {
      "status": "0x1",
      "cumulativeGasUsed": "0x7dfa1a",
      "logs": [
        {
          "address": "0x1c1f0657d9dc486997ceb7c5599ca0e2515ee81a",
          "topics": [
            "0xa3396fd7f6e0a21b50e5089d2da70d5ac0a3bbbd1f617a93f134b76389980198",
            "0x0000000000000000000000007b7c993c3c283aaca86913e1c27db054ce5fa143",
            "0x000000000000000000000000c5db00b3e2371ca308963b5d696b8ae4c29f8386"
          ],
          "data": "0x",
          "blockHash": "0x0c9c2d813ab7149daf446dc27fb3dc437649c67408ed83895ae25b251e460cba",
          "blockNumber": "0x6a9ff8",
          "transactionHash": "0x37aa6d865e58227a82a1927eda9061e6e83f6756214d69367d40badcd0923aab",
          "transactionIndex": "0x42",
          "logIndex": "0x3e",
          "removed": false
        }
      ],
      "logsBloom": "0x00000000000000000000000000000000000000000000000000000000000000000000080000000000000010000000000000100000000000000000000000000000000000000000000000000000000000000000040100000000000000000000000000000000000000000000000000000000000000000000000000000000000000000000000000000000000000000000000000000000000000000000000000100001000000000000000040000000000000000000001000000000000000020000000000020000000000000000000000000000000000000000000000000000000000000001000000000000000000000000000000000000000000000000000000000000",
      "type": "0x2",
      "transactionHash": "0x37aa6d865e58227a82a1927eda9061e6e83f6756214d69367d40badcd0923aab",
      "transactionIndex": "0x42",
      "blockHash": "0x0c9c2d813ab7149daf446dc27fb3dc437649c67408ed83895ae25b251e460cba",
      "blockNumber": "0x6a9ff8",
      "gasUsed": "0xb9e0",
      "effectiveGasPrice": "0xb94534ae",
      "from": "0x7b7c993c3c283aaca86913e1c27db054ce5fa143",
      "to": "0x1c1f0657d9dc486997ceb7c5599ca0e2515ee81a",
      "contractAddress": null
    },
    {
      "status": "0x1",
      "cumulativeGasUsed": "0xeed26a",
      "logs": [
        {
          "address": "0xc5db00b3e2371ca308963b5d696b8ae4c29f8386",
          "topics": [
            "0xa52ea92e6e955aa8ac66420b86350f7139959adfcc7e6a14eee1bd116d09860e",
            "0x0000000000000000000000000000000000000000000000000000000000000001",
            "0x0000000000000000000000001c1f0657d9dc486997ceb7c5599ca0e2515ee81a",
            "0xef5de7e300000000000000000000000000000000000000000000000000000000"
          ],
          "data": "0x0000000000000000000000000000000000000000000000000000000000000001",
          "blockHash": "0x8e51e41bd09d7d6f375e738f53d9ba937b53a8f1978292bc63b17c48078f2a87",
          "blockNumber": "0x6a9ff9",
          "transactionHash": "0xad5aac92358d65bbe7b57008696fa18bd5f58ac853f1dc2b2180dc32f9451a3c",
          "transactionIndex": "0x57",
          "logIndex": "0x78",
          "removed": false
        }
      ],
      "logsBloom": "0x00000010000000000000000000000000000000000000000000000000000000000000000000000000000000000000000000000000000000010000000000040000000000000000000000000000000800000000000000040000000000000000000000000000000000000000000000000000000000000000080000000000004000000000000000000000000000000000000000000000010000000000000000000000000000000000000000000000000000000000000000000000000000000000000004000000000000000000000000080000000000000000000200000000000040000000010000000000002000000000000000000000000000000000004000000000",
      "type": "0x2",
      "transactionHash": "0xad5aac92358d65bbe7b57008696fa18bd5f58ac853f1dc2b2180dc32f9451a3c",
      "transactionIndex": "0x57",
      "blockHash": "0x8e51e41bd09d7d6f375e738f53d9ba937b53a8f1978292bc63b17c48078f2a87",
      "blockNumber": "0x6a9ff9",
      "gasUsed": "0xc96a",
      "effectiveGasPrice": "0xb37dd475",
      "from": "0x7b7c993c3c283aaca86913e1c27db054ce5fa143",
      "to": "0xc5db00b3e2371ca308963b5d696b8ae4c29f8386",
      "contractAddress": null
    },
    {
      "status": "0x1",
      "cumulativeGasUsed": "0x80af68",
      "logs": [
        {
          "address": "0xc5db00b3e2371ca308963b5d696b8ae4c29f8386",
          "topics": [
            "0x4c9bdd0c8e073eb5eda2250b18d8e5121ff27b62064fbeeeed4869bb99bc5bf2",
            "0x0000000000000000000000007b7c993c3c283aaca86913e1c27db054ce5fa143",
            "0x0000000000000000000000000000000000000000000000000000000000000001"
          ],
          "data": "0x0000000000000000000000000000000000000000000000000000000000000001",
          "blockHash": "0x1d8a94abef5348b1ea4a1c94e77d874d08bf80a6072b608dcc9a3ebe84c768ff",
          "blockNumber": "0x6a9ffa",
          "transactionHash": "0x943deff684a1ac8bbb15aff4273834700bfd1ca9f9fefc2db48de3887ceb9f67",
          "transactionIndex": "0x45",
          "logIndex": "0x51",
          "removed": false
        }
      ],
      "logsBloom": "0x00000000000000000000000000000000000000000000000000000000000000000000000000000000000000000000000000000000000000010000000000040000000000000000000000000000000000000000000000040000000000000000000000000000000000000000000000000000000000000000000000000000000000000000000000000000000000000000000000000080000000000000000000100000000000000000000040000000000000000000000000000000000000020000000004000000000000000000000000000000000000000000000000000000000040000000000000000000000000000000000000400080000000000000004000000000",
      "type": "0x2",
      "transactionHash": "0x943deff684a1ac8bbb15aff4273834700bfd1ca9f9fefc2db48de3887ceb9f67",
      "transactionIndex": "0x45",
      "blockHash": "0x1d8a94abef5348b1ea4a1c94e77d874d08bf80a6072b608dcc9a3ebe84c768ff",
      "blockNumber": "0x6a9ffa",
      "gasUsed": "0xc626",
      "effectiveGasPrice": "0xb6254dce",
      "from": "0x7b7c993c3c283aaca86913e1c27db054ce5fa143",
      "to": "0xc5db00b3e2371ca308963b5d696b8ae4c29f8386",
      "contractAddress": null
    },
    {
      "status": "0x1",
      "cumulativeGasUsed": "0x109c9ae",
      "logs": [
        {
          "address": "0xc5db00b3e2371ca308963b5d696b8ae4c29f8386",
          "topics": [
            "0x4c9bdd0c8e073eb5eda2250b18d8e5121ff27b62064fbeeeed4869bb99bc5bf2",
            "0x0000000000000000000000007b7c993c3c283aaca86913e1c27db054ce5fa143",
            "0x0000000000000000000000000000000000000000000000000000000000000001"
          ],
          "data": "0x0000000000000000000000000000000000000000000000000000000000000001",
          "blockHash": "0xcb767194c6863aadb2b220f55c048176ffaffad13fa2c9eb336109af3bfba273",
          "blockNumber": "0x6a9ffb",
          "transactionHash": "0xfc74f08b13f6fdab131c8f586828ebf6747e03bc916d588c25a3180d3c8c5365",
          "transactionIndex": "0x47",
          "logIndex": "0x68",
          "removed": false
        }
      ],
      "logsBloom": "0x00000000000000000000000000000000000000000000000000000000000000000000000000000000000000000000000000000000000000010000000000040000000000000000000000000000000000000000000000040000000000000000000000000000000000000000000000000000000000000000000000000000000000000000000000000000000000000000000000000080000000000000000000100000000000000000000040000000000000000000000000000000000000020000000004000000000000000000000000000000000000000000000000000000000040000000000000000000000000000000000000400080000000000000004000000000",
      "type": "0x2",
      "transactionHash": "0xfc74f08b13f6fdab131c8f586828ebf6747e03bc916d588c25a3180d3c8c5365",
      "transactionIndex": "0x47",
      "blockHash": "0xcb767194c6863aadb2b220f55c048176ffaffad13fa2c9eb336109af3bfba273",
      "blockNumber": "0x6a9ffb",
      "gasUsed": "0x786a",
      "effectiveGasPrice": "0xb152fc6f",
      "from": "0x7b7c993c3c283aaca86913e1c27db054ce5fa143",
      "to": "0xc5db00b3e2371ca308963b5d696b8ae4c29f8386",
      "contractAddress": null
    }
  ],
  "libraries": [],
  "pending": [],
  "returns": {},
  "timestamp": 1730434112,
  "chain": 11155111,
  "commit": "9fdb821"
}